{
  "address": "0xB6eD305e9a5F91E02184c8504bEAdF581C41C4c8",
  "abi": [
    {
      "inputs": [
        {
          "internalType": "address",
          "name": "_matchDataAddress",
          "type": "address"
        }
      ],
      "stateMutability": "nonpayable",
      "type": "constructor"
    },
    {
      "anonymous": false,
      "inputs": [
        {
          "indexed": true,
          "internalType": "uint256",
          "name": "matchId",
          "type": "uint256"
        },
        {
          "indexed": false,
          "internalType": "address",
          "name": "vaultAddress",
          "type": "address"
        },
        {
          "indexed": true,
          "internalType": "address",
          "name": "creator",
          "type": "address"
        }
      ],
      "name": "VaultCreated",
      "type": "event"
    },
    {
      "inputs": [
        {
          "internalType": "uint256",
          "name": "_matchId",
          "type": "uint256"
        },
        {
          "internalType": "address",
          "name": "_experienceNFTAddress",
          "type": "address"
        },
        {
          "internalType": "uint256",
          "name": "_experienceTokenId",
          "type": "uint256"
        }
      ],
      "name": "createCommitmentVault",
      "outputs": [],
      "stateMutability": "nonpayable",
      "type": "function"
    },
    {
      "inputs": [],
      "name": "matchDataContract",
      "outputs": [
        {
          "internalType": "contract IMatchData",
          "name": "",
          "type": "address"
        }
      ],
      "stateMutability": "view",
      "type": "function"
    },
    {
      "inputs": [
        {
          "internalType": "uint256",
          "name": "",
          "type": "uint256"
        }
      ],
      "name": "matchIdToVault",
      "outputs": [
        {
          "internalType": "address",
          "name": "",
          "type": "address"
        }
      ],
      "stateMutability": "view",
      "type": "function"
    }
  ],
  "transactionHash": "0x2302c8f3c86516b6bca25f4c14eec2b14785636b94ede64fe4385643d2d1a57a",
  "args": [
    "0x87DFa5646f097F52448A93f273AB835974d72643"
  ],
  "numDeployments": 1,
  "solcInputHash": "33cb716f3c7232314a0055ce24e358a4",
  "bytecode": "0x608060405234801561001057600080fd5b506040516112f03803806112f083398101604081905261002f91610054565b600080546001600160a01b0319166001600160a01b0392909216919091179055610084565b60006020828403121561006657600080fd5b81516001600160a01b038116811461007d57600080fd5b9392505050565b61125d806100936000396000f3fe608060405234801561001057600080fd5b50600436106100415760003560e01c80631a29a73a14610046578063c72a50d914610075578063ca269bfe1461008a575b600080fd5b600054610059906001600160a01b031681565b6040516001600160a01b03909116815260200160405180910390f35b610088610083366004610422565b6100b3565b005b61005961009836600461045a565b6001602052600090815260409020546001600160a01b031681565b6000838152600160205260409020546001600160a01b0316156101295760405162461bcd60e51b815260206004820152602360248201527f5661756c7420616c72656164792065786973747320666f722074686973206d616044820152620e8c6d60eb1b60648201526084015b60405180910390fd5b600080546040516316fae89360e11b8152600481018690526001600160a01b0390911690632df5d12690602401600060405180830381865afa158015610173573d6000803e3d6000fd5b505050506040513d6000823e601f3d908101601f1916820160405261019b9190810190610590565b905080604001516000036101e85760405162461bcd60e51b815260206004820152601460248201527313585d18da08191bd95cc81b9bdd08195e1a5cdd60621b6044820152606401610120565b6002816080015160ff1610156102405760405162461bcd60e51b815260206004820152601f60248201527f4d61746368206c6576656c206d7573742062652032206f7220686967686572006044820152606401610120565b805133906000906001600160a01b03168203610261575060208201516102ce565b82602001516001600160a01b0316826001600160a01b031603610286575081516102ce565b60405162461bcd60e51b815260206004820152601e60248201527f596f7520617265206e6f742070617274206f662074686973206d6174636800006044820152606401610120565b6000828287876040516102e0906103fd565b6001600160a01b0394851681529284166020840152921660408201526060810191909152608001604051809103906000f080158015610323573d6000803e3d6000fd5b506000888152600160205260409081902080546001600160a01b0319166001600160a01b038481169182179092559151632142170760e11b8152336004820152602481019290925260448201889052919250908716906342842e0e90606401600060405180830381600087803b15801561039c57600080fd5b505af11580156103b0573d6000803e3d6000fd5b50506040516001600160a01b03841681523392508991507fa8596cc4a052ecc7656e9ca0fb7a10472573699e3aa34ac5659bc37c1b0a44fc9060200160405180910390a350505050505050565b610bd88061065083390190565b6001600160a01b038116811461041f57600080fd5b50565b60008060006060848603121561043757600080fd5b8335925060208401356104498161040a565b929592945050506040919091013590565b60006020828403121561046c57600080fd5b5035919050565b634e487b7160e01b600052604160045260246000fd5b60405160c0810167ffffffffffffffff811182821017156104ac576104ac610473565b60405290565b604051601f8201601f1916810167ffffffffffffffff811182821017156104db576104db610473565b604052919050565b600082601f8301126104f457600080fd5b815167ffffffffffffffff81111561050e5761050e610473565b6020610522601f8301601f191682016104b2565b828152858284870101111561053657600080fd5b60005b83811015610554578581018301518282018401528201610539565b506000928101909101919091529392505050565b805160ff8116811461057957600080fd5b919050565b805161ffff8116811461057957600080fd5b6000602082840312156105a257600080fd5b815167ffffffffffffffff808211156105ba57600080fd5b9083019060c082860312156105ce57600080fd5b6105d6610489565b82516105e18161040a565b815260208301516105f18161040a565b60208201526040838101519082015260608301518281111561061257600080fd5b61061e878286016104e3565b60608301525061063060808401610568565b608082015261064160a0840161057e565b60a08201529594505050505056fe61010060405234801561001157600080fd5b50604051610bd8380380610bd88339810160408190526100309161006e565b6001600160a01b0393841660805291831660a05290911660c05260e0526100b9565b80516001600160a01b038116811461006957600080fd5b919050565b6000806000806080858703121561008457600080fd5b61008d85610052565b935061009b60208601610052565b92506100a960408601610052565b6060959095015193969295505050565b60805160a05160c05160e051610a6861017060003960008181610170015281816104c801526107680152600081816101ad015281816104f6015261078e0152600081816101fc015281816102a501528181610348015281816103d3015281816105bc01528181610647015261087d0152600081816102230152818161027301528181610316015281816103900152818161058a0152818161060401528181610740015281816107f5015261084b0152610a686000f3fe608060405234801561001057600080fd5b50600436106100ce5760003560e01c80637deb671e1161008c578063c9ff219911610066578063c9ff2199146101ef578063cb1a295f146101f7578063deb22e9a1461021e578063fdd1da9c1461024557600080fd5b80637deb671e146101a057806390f8aa46146101a8578063c134ee87146101e757600080fd5b8062b2dd8a146100d3578063034f6b211461010b578063150b7a0214610118578063272a98a01461014f5780633730a5f81461015957806373a2e3a01461016b575b600080fd5b6100f66100e13660046108f3565b60016020526000908152604090205460ff1681565b60405190151581526020015b60405180910390f35b6000546100f69060ff1681565b61013661012636600461092b565b630a85bd0160e11b949350505050565b6040516001600160e01b03199091168152602001610102565b610157610268565b005b6000546100f690610100900460ff1681565b6101927f000000000000000000000000000000000000000000000000000000000000000081565b604051908152602001610102565b61015761030b565b6101cf7f000000000000000000000000000000000000000000000000000000000000000081565b6040516001600160a01b039091168152602001610102565b61015761057f565b610157610840565b6101cf7f000000000000000000000000000000000000000000000000000000000000000081565b6101cf7f000000000000000000000000000000000000000000000000000000000000000081565b6100f66102533660046108f3565b60026020526000908152604090205460ff1681565b336001600160a01b037f00000000000000000000000000000000000000000000000000000000000000001614806102c75750336001600160a01b037f000000000000000000000000000000000000000000000000000000000000000016145b6102ec5760405162461bcd60e51b81526004016102e390610a07565b60405180910390fd5b336000908152600160208190526040909120805460ff19169091179055565b336001600160a01b037f000000000000000000000000000000000000000000000000000000000000000016148061036a5750336001600160a01b037f000000000000000000000000000000000000000000000000000000000000000016145b6103865760405162461bcd60e51b81526004016102e390610a07565b6001600160a01b037f00000000000000000000000000000000000000000000000000000000000000001660009081526001602052604090205460ff16801561040657506001600160a01b037f00000000000000000000000000000000000000000000000000000000000000001660009081526001602052604090205460ff165b6104465760405162461bcd60e51b8152602060048201526011602482015270426f7468206d75737420617070726f766560781b60448201526064016102e3565b60005460ff161580156104615750600054610100900460ff16155b6104a05760405162461bcd60e51b815260206004820152601060248201526f15985d5b1d081a5cc81cd95d1d1b195960821b60448201526064016102e3565b6000805460ff19166001179055604051632142170760e11b81523060048201523360248201527f000000000000000000000000000000000000000000000000000000000000000060448201526001600160a01b037f000000000000000000000000000000000000000000000000000000000000000016906342842e0e90606401600060405180830381600087803b15801561053a57600080fd5b505af115801561054e573d6000803e3d6000fd5b50506040513392507fcb7d87f76b4d6501ac27ed560664bf84ce273a2ddd7b9b1da63c753e68ccae209150600090a2565b336001600160a01b037f00000000000000000000000000000000000000000000000000000000000000001614806105de5750336001600160a01b037f000000000000000000000000000000000000000000000000000000000000000016145b6105fa5760405162461bcd60e51b81526004016102e390610a07565b6001600160a01b037f00000000000000000000000000000000000000000000000000000000000000001660009081526002602052604090205460ff16801561067a57506001600160a01b037f00000000000000000000000000000000000000000000000000000000000000001660009081526002602052604090205460ff165b6106ba5760405162461bcd60e51b8152602060048201526011602482015270426f7468206d75737420617070726f766560781b60448201526064016102e3565b60005460ff161580156106d55750600054610100900460ff16155b6107145760405162461bcd60e51b815260206004820152601060248201526f15985d5b1d081a5cc81cd95d1d1b195960821b60448201526064016102e3565b6000805461ff001916610100179055604051632142170760e11b81523060048201526001600160a01b037f0000000000000000000000000000000000000000000000000000000000000000811660248301527f000000000000000000000000000000000000000000000000000000000000000060448301527f000000000000000000000000000000000000000000000000000000000000000016906342842e0e90606401600060405180830381600087803b1580156107d257600080fd5b505af11580156107e6573d6000803e3d6000fd5b50506040516001600160a01b037f00000000000000000000000000000000000000000000000000000000000000001692507fd7a49410fd24d54abb04314ecda3641dc2c6b904c709df53f119801b011d1b9a9150600090a2565b336001600160a01b037f000000000000000000000000000000000000000000000000000000000000000016148061089f5750336001600160a01b037f000000000000000000000000000000000000000000000000000000000000000016145b6108bb5760405162461bcd60e51b81526004016102e390610a07565b336000908152600260205260409020805460ff19166001179055565b80356001600160a01b03811681146108ee57600080fd5b919050565b60006020828403121561090557600080fd5b61090e826108d7565b9392505050565b634e487b7160e01b600052604160045260246000fd5b6000806000806080858703121561094157600080fd5b61094a856108d7565b9350610958602086016108d7565b925060408501359150606085013567ffffffffffffffff8082111561097c57600080fd5b818701915087601f83011261099057600080fd5b8135818111156109a2576109a2610915565b604051601f8201601f19908116603f011681019083821181831017156109ca576109ca610915565b816040528281528a60208487010111156109e357600080fd5b82602086016020830137600060208483010152809550505050505092959194509250565b602080825260119082015270139bdd0818481c185c9d1a58da5c185b9d607a1b60408201526060019056fea26469706673582212207b10dd31c2ae11823b8cc60e28643ac842f097722f5670de1c3959878ef1616c64736f6c63430008180033a2646970667358221220f61998ca24ac81a3bccf9c3f701298581b05236198186af599dd39adc3227ff564736f6c63430008180033",
  "devdoc": {
    "author": "edsphinx",
    "details": "Contrato para que las parejas creen sus propias Bóvedas de Compromisos.",
    "kind": "dev",
    "methods": {
      "createCommitmentVault(uint256,address,uint256)": {
        "details": "Verifica que el nivel del match sea 2 o superior. El llamador debe ser parte del match y ser el dueño del ExperienceNFT."
      }
    },
    "title": "Commitment Vault Factory",
    "version": 1
  },
  "userdoc": {
    "kind": "user",
    "methods": {
      "createCommitmentVault(uint256,address,uint256)": {
        "notice": "Crea una Bóveda de Compromisos para un match."
      }
    },
    "version": 1
  },
  "storageLayout": {
    "storage": [
      {
        "astId": 3179,
        "contract": "contracts/Sunny/CommitmentVaultFactory.sol:CommitmentVaultFactory",
        "label": "matchDataContract",
        "offset": 0,
        "slot": "0",
        "type": "t_contract(IMatchData)3466"
      },
      {
        "astId": 3183,
        "contract": "contracts/Sunny/CommitmentVaultFactory.sol:CommitmentVaultFactory",
        "label": "matchIdToVault",
        "offset": 0,
        "slot": "1",
        "type": "t_mapping(t_uint256,t_address)"
      }
    ],
    "types": {
      "t_address": {
        "encoding": "inplace",
        "label": "address",
        "numberOfBytes": "20"
      },
      "t_contract(IMatchData)3466": {
        "encoding": "inplace",
        "label": "contract IMatchData",
        "numberOfBytes": "20"
      },
      "t_mapping(t_uint256,t_address)": {
        "encoding": "mapping",
        "key": "t_uint256",
        "label": "mapping(uint256 => address)",
        "numberOfBytes": "32",
        "value": "t_address"
      },
      "t_uint256": {
        "encoding": "inplace",
        "label": "uint256",
        "numberOfBytes": "32"
      }
    }
  }
}