{
  "address": "0x92e04D680232dA68E1086B4D6E4a336533138324",
  "abi": [
    {
      "inputs": [
        {
          "internalType": "address",
          "name": "_proofOfMatchAddress",
          "type": "address"
        },
        {
          "internalType": "address",
          "name": "_matchDataAddress",
          "type": "address"
        }
      ],
      "stateMutability": "nonpayable",
      "type": "constructor"
    },
    {
      "inputs": [
        {
          "internalType": "address",
          "name": "user",
          "type": "address"
        }
      ],
      "name": "getPresenceScore",
      "outputs": [
        {
          "internalType": "uint256",
          "name": "",
          "type": "uint256"
        }
      ],
      "stateMutability": "view",
      "type": "function"
    },
    {
      "inputs": [],
      "name": "matchDataContract",
      "outputs": [
        {
          "internalType": "contract IMatchData",
          "name": "",
          "type": "address"
        }
      ],
      "stateMutability": "view",
      "type": "function"
    },
    {
      "inputs": [],
      "name": "proofOfMatchContract",
      "outputs": [
        {
          "internalType": "contract IProofOfMatch",
          "name": "",
          "type": "address"
        }
      ],
      "stateMutability": "view",
      "type": "function"
    }
  ],
  "transactionHash": "0x40508d0db8a6bf06e8e3a76c7a9049e2323831aa5c4909f7e54b7ef0466bb237",
  "args": [
    "0x88f9f78f8AD5Ac224ec48Fef7F345299e7411D14",
    "0x87DFa5646f097F52448A93f273AB835974d72643"
  ],
  "numDeployments": 1,
  "solcInputHash": "33cb716f3c7232314a0055ce24e358a4",
  "bytecode": "0x608060405234801561001057600080fd5b5060405161068e38038061068e83398101604081905261002f9161007c565b600080546001600160a01b039384166001600160a01b031991821617909155600180549290931691161790556100af565b80516001600160a01b038116811461007757600080fd5b919050565b6000806040838503121561008f57600080fd5b61009883610060565b91506100a660208401610060565b90509250929050565b6105d0806100be6000396000f3fe608060405234801561001057600080fd5b50600436106100415760003560e01c80631a29a73a1461004657806347f6702c14610076578063d9c187f714610089575b600080fd5b600154610059906001600160a01b031681565b6040516001600160a01b0390911681526020015b60405180910390f35b600054610059906001600160a01b031681565b61009c6100973660046102bb565b6100aa565b60405190815260200161006d565b60008054604051635de6dc5560e01b81526001600160a01b03848116600483015283928392911690635de6dc5590602401600060405180830381865afa1580156100f8573d6000803e3d6000fd5b505050506040513d6000823e601f3d908101601f19168201604052610120919081019061034f565b905060005b815181101561029a576000805483516001600160a01b039091169063fbd46dd190859085908110610158576101586103f5565b60200260200101516040518263ffffffff1660e01b815260040161017e91815260200190565b602060405180830381865afa15801561019b573d6000803e3d6000fd5b505050506040513d601f19601f820116820180604052508101906101bf919061040b565b6001546040516316fae89360e11b8152600481018390529192506000916001600160a01b0390911690632df5d12690602401600060405180830381865afa15801561020e573d6000803e3d6000fd5b505050506040513d6000823e601f3d908101601f19168201604052610236919081019061044c565b9050806080015160ff1660010361025957610252600a86610573565b9450610290565b806080015160ff1660020361027357610252601986610573565b6003816080015160ff16106102905761028d603286610573565b94505b5050600101610125565b50909392505050565b6001600160a01b03811681146102b857600080fd5b50565b6000602082840312156102cd57600080fd5b81356102d8816102a3565b9392505050565b634e487b7160e01b600052604160045260246000fd5b60405160c0810167ffffffffffffffff81118282101715610318576103186102df565b60405290565b604051601f8201601f1916810167ffffffffffffffff81118282101715610347576103476102df565b604052919050565b6000602080838503121561036257600080fd5b825167ffffffffffffffff8082111561037a57600080fd5b818501915085601f83011261038e57600080fd5b8151818111156103a0576103a06102df565b8060051b91506103b184830161031e565b81815291830184019184810190888411156103cb57600080fd5b938501935b838510156103e9578451825293850193908501906103d0565b98975050505050505050565b634e487b7160e01b600052603260045260246000fd5b60006020828403121561041d57600080fd5b5051919050565b805160ff8116811461043557600080fd5b919050565b805161ffff8116811461043557600080fd5b6000602080838503121561045f57600080fd5b825167ffffffffffffffff8082111561047757600080fd5b9084019060c0828703121561048b57600080fd5b6104936102f5565b825161049e816102a3565b8152828401516104ad816102a3565b81850152604083810151908201526060830151828111156104cd57600080fd5b8301601f810188136104de57600080fd5b8051838111156104f0576104f06102df565b610502601f8201601f1916870161031e565b9350808452888682840101111561051857600080fd5b60005b8181101561053657828101870151858201880152860161051b565b506000868286010152505081606082015261055360808401610424565b608082015261056460a0840161043a565b60a08201529695505050505050565b8082018082111561059457634e487b7160e01b600052601160045260246000fd5b9291505056fea264697066735822122096ba6ae60186cdfa99c935afa38bb3315b71f02365ec5b4c0a6734ddef15e98a64736f6c63430008180033",
  "devdoc": {
    "author": "edsphinx",
    "details": "Lee datos de los contratos ProofOfMatch y MatchData para generar una puntuación de reputación social on-chain.",
    "kind": "dev",
    "methods": {
      "constructor": {
        "details": "Al desplegar, se enlazan las direcciones de los contratos de los que depende."
      },
      "getPresenceScore(address)": {
        "details": "Lee los tokens del usuario, obtiene los datos de cada match asociado y aplica una fórmula para generar una puntuación.",
        "params": {
          "user": "La dirección de la wallet a consultar."
        },
        "returns": {
          "_0": "score La Puntuación de Presencia calculada."
        }
      }
    },
    "title": "Presence Protocol Score",
    "version": 1
  },
  "userdoc": {
    "kind": "user",
    "methods": {
      "getPresenceScore(address)": {
        "notice": "Calcula la Puntuación de Presencia para una dirección de usuario."
      },
      "matchDataContract()": {
        "notice": "La instancia del contrato IMatchData."
      },
      "proofOfMatchContract()": {
        "notice": "La instancia del contrato IProofOfMatch."
      }
    },
    "notice": "Contrato de solo lectura que calcula una \"Puntuación de Presencia\" para un usuario, sirviendo como un mecanismo de resistencia a Sybil.",
    "version": 1
  },
  "storageLayout": {
    "storage": [
      {
        "astId": 3683,
        "contract": "contracts/Sunny/PresenceScore.sol:PresenceScore",
        "label": "proofOfMatchContract",
        "offset": 0,
        "slot": "0",
        "type": "t_contract(IProofOfMatch)3500"
      },
      {
        "astId": 3687,
        "contract": "contracts/Sunny/PresenceScore.sol:PresenceScore",
        "label": "matchDataContract",
        "offset": 0,
        "slot": "1",
        "type": "t_contract(IMatchData)3466"
      }
    ],
    "types": {
      "t_contract(IMatchData)3466": {
        "encoding": "inplace",
        "label": "contract IMatchData",
        "numberOfBytes": "20"
      },
      "t_contract(IProofOfMatch)3500": {
        "encoding": "inplace",
        "label": "contract IProofOfMatch",
        "numberOfBytes": "20"
      }
    }
  }
}